S00E000054703464656D2E73726563E8
S11300000C9434000C9451000C9451000C94510045
S11300100C9451000C9451000C9451000C94510018
S11300200C9451000C9451000C9451000C94510008
S11300300C9451000C9451000C9466010C945100E2
S11300400C9451000C9451000C9486000C945100B3
S11300500C9451000C9451000C9451000C945100D8
S11300600C9451000C94510011241FBECFEFD8E022
S1130070DEBFCDBF11E0A0E0B1E0E6E2F4E002C0F3
S113008005900D92A03AB107D9F721E0A0EAB1E0BA
S113009001C01D92A93AB207E1F70E94BE000C9478
S11300A011020C94000087E60E94C9010E94D3014A
S11300B00E94D9010E94DF0178940895CF93DF93C1
S11300C0681751F0C62FD0E090E00E940902C817CB
S11300D0D90721F481E003C081E001C080E0DF9111
S11300E0CF91089582E091E00E94ED01089581E5A9
S11300F091E00E94ED0108958BE691E00E94ED01EC
S1130100089586E891E00E94ED0108951F920F92F0
S11301100FB60F9211242F933F934F935F936F93D6
S11301207F938F939F93AF93BF93CF93EF93FF935B
S1130130C091C6006C2F82E70E945E008093A501E7
S11301406C2F87E60E945E008093A4016C2F82E6E8
S11301500E945E008093A301FF91EF91CF91BF9124
S1130160AF919F918F917F916F915F914F913F914B
S11301702F910F900FBE0F901F9018950E94C300EF
S11301800E940801FDCF0E9453000E9472000E9449
S11301908D010E942B011092A6010895CF93C09166
S11301A0A6018091A301882331F00E94810010925E
S11301B0A30182E02BC08091A401882331F00E9426
S11301C07C001092A40181E021C08091A5018823C4
S11301D031F00E9477001092A50180E017C00E94C0
S11301E035019091A601913041F018F0923049F018
S11301F00CC0809300018C2F09C08093A0018C2F28
S113020005C08093A1018C2F01C08C2FCF9108953C
S11302108091A601813069F018F0823099F0089538
S1130220809100010E94C3010E94CE008093A60128
S113023008958091A0010E94B7010E94CE0080938E
S1130240A60108958091A1010E94AB010E94CE00F5
S11302508093A601089587B1877F87B983E6809349
S11302607C0087E880937A000895EAE7F0E08081D3
S11302708064808380917A0086FDFCCF8091790030
S1130280089584B1806284B982E884BD83E085BD29
S11302908091010187BD82E080936E000895809172
S11302A0A2018F5F8093A2018F3F11F41092A201EB
S11302B09091A20180910101981720F485B1806288
S11302C085B9089585B18F7D85B908951F920F92E0
S11302D00FB60F9211242F933F934F935F936F9315
S11302E07F938F939F93AF93BF93EF93FF930E945A
S11302F04F0181E08093A701FF91EF91BF91AF91EE
S11303009F918F917F916F915F914F913F912F9129
S11303100F900FBE0F901F90189584B1826084B91E
S113032084B1846084B98FEF90E0909389008093C6
S1130330880090938B0080938A0022EA20938000A7
S11303402DE12093810090938700809386000E9482
S1130350410178940895F8942FEF30E0A901481BE7
S11303605109509389004093880078940895F89433
S11303702FEF30E0A901481B510950938B004093A3
S11303808A0078940895F894809580930101789474
S113039008951092C10096E09093C2001092C50097
S11303A08093C4000895E1ECF0E08081886080834C
S11303B00895E1ECF0E08081806180830895E1ECB0
S11303C0F0E080818068808308958091C00085FF7B
S11303D0FCCF08958093C6000895EF92FF920F9387
S11303E01F93CF937C01C0E007C00E94E501F80190
S11303F080810E94EA01CF5F87010C0F111DF80173
S113040080818111F2CFCF911F910F91FF90EF90D6
S113041008959111089581568A5108F4805285589F
S10904200895F894FFCFDB
S1130426FF0150726573696F6E6520756E61206495
S113043665206C6173207369677569656E7465738D
S1130446207465636C617320522C2047206F204210
S1130456207061726120636F6E666967757261727E
S113046620737520696E74656E63696461640D0A30
S113047600457374617320656E20656C2065737422
S113048661646F20726F6A6F0D0A0045737461733D
S113049620656E20656C2065737461646F207665D3
S11304A67264650D0A00457374617320656E206578
S11304B66C2065737461646F20617A756C0D0A0033
S9030000FC
